{
  "contractName": "HealthInsurance",
  "abi": [
    {
      "inputs": [],
      "stateMutability": "nonpayable",
      "type": "constructor"
    },
    {
      "anonymous": false,
      "inputs": [
        {
          "indexed": true,
          "internalType": "uint256",
          "name": "claimId",
          "type": "uint256"
        },
        {
          "indexed": false,
          "internalType": "enum HealthInsurance.ClaimStatus",
          "name": "status",
          "type": "uint8"
        }
      ],
      "name": "ClaimStatusChanged",
      "type": "event"
    },
    {
      "anonymous": false,
      "inputs": [
        {
          "indexed": true,
          "internalType": "uint256",
          "name": "claimId",
          "type": "uint256"
        },
        {
          "indexed": true,
          "internalType": "uint256",
          "name": "policyId",
          "type": "uint256"
        }
      ],
      "name": "ClaimSubmitted",
      "type": "event"
    },
    {
      "anonymous": false,
      "inputs": [
        {
          "indexed": true,
          "internalType": "uint256",
          "name": "policyId",
          "type": "uint256"
        },
        {
          "indexed": true,
          "internalType": "address",
          "name": "holder",
          "type": "address"
        }
      ],
      "name": "PolicyCreated",
      "type": "event"
    },
    {
      "anonymous": false,
      "inputs": [
        {
          "indexed": true,
          "internalType": "uint256",
          "name": "policyId",
          "type": "uint256"
        },
        {
          "indexed": false,
          "internalType": "uint256",
          "name": "amount",
          "type": "uint256"
        }
      ],
      "name": "PremiumPaid",
      "type": "event"
    },
    {
      "inputs": [
        {
          "internalType": "uint256",
          "name": "",
          "type": "uint256"
        }
      ],
      "name": "claims",
      "outputs": [
        {
          "internalType": "uint256",
          "name": "policyId",
          "type": "uint256"
        },
        {
          "internalType": "string",
          "name": "treatmentDescription",
          "type": "string"
        },
        {
          "internalType": "uint256",
          "name": "amount",
          "type": "uint256"
        },
        {
          "internalType": "enum HealthInsurance.ClaimStatus",
          "name": "status",
          "type": "uint8"
        }
      ],
      "stateMutability": "view",
      "type": "function"
    },
    {
      "inputs": [],
      "name": "nextClaimId",
      "outputs": [
        {
          "internalType": "uint256",
          "name": "",
          "type": "uint256"
        }
      ],
      "stateMutability": "view",
      "type": "function"
    },
    {
      "inputs": [],
      "name": "nextPolicyId",
      "outputs": [
        {
          "internalType": "uint256",
          "name": "",
          "type": "uint256"
        }
      ],
      "stateMutability": "view",
      "type": "function"
    },
    {
      "inputs": [],
      "name": "owner",
      "outputs": [
        {
          "internalType": "address",
          "name": "",
          "type": "address"
        }
      ],
      "stateMutability": "view",
      "type": "function"
    },
    {
      "inputs": [
        {
          "internalType": "uint256",
          "name": "",
          "type": "uint256"
        }
      ],
      "name": "policies",
      "outputs": [
        {
          "internalType": "address",
          "name": "holder",
          "type": "address"
        },
        {
          "internalType": "uint256",
          "name": "premium",
          "type": "uint256"
        },
        {
          "internalType": "uint256",
          "name": "coverageAmount",
          "type": "uint256"
        },
        {
          "internalType": "uint256",
          "name": "expiryDate",
          "type": "uint256"
        },
        {
          "internalType": "bool",
          "name": "isActive",
          "type": "bool"
        }
      ],
      "stateMutability": "view",
      "type": "function"
    },
    {
      "inputs": [
        {
          "internalType": "address",
          "name": "",
          "type": "address"
        },
        {
          "internalType": "uint256",
          "name": "",
          "type": "uint256"
        }
      ],
      "name": "userPolicies",
      "outputs": [
        {
          "internalType": "uint256",
          "name": "",
          "type": "uint256"
        }
      ],
      "stateMutability": "view",
      "type": "function"
    },
    {
      "inputs": [
        {
          "internalType": "address",
          "name": "_holder",
          "type": "address"
        },
        {
          "internalType": "uint256",
          "name": "_premium",
          "type": "uint256"
        },
        {
          "internalType": "uint256",
          "name": "_coverageAmount",
          "type": "uint256"
        },
        {
          "internalType": "uint256",
          "name": "_durationDays",
          "type": "uint256"
        }
      ],
      "name": "createPolicy",
      "outputs": [
        {
          "internalType": "uint256",
          "name": "",
          "type": "uint256"
        }
      ],
      "stateMutability": "nonpayable",
      "type": "function"
    },
    {
      "inputs": [
        {
          "internalType": "uint256",
          "name": "_policyId",
          "type": "uint256"
        }
      ],
      "name": "payPremium",
      "outputs": [],
      "stateMutability": "payable",
      "type": "function"
    },
    {
      "inputs": [
        {
          "internalType": "uint256",
          "name": "_policyId",
          "type": "uint256"
        },
        {
          "internalType": "string",
          "name": "_description",
          "type": "string"
        },
        {
          "internalType": "uint256",
          "name": "_amount",
          "type": "uint256"
        }
      ],
      "name": "submitClaim",
      "outputs": [
        {
          "internalType": "uint256",
          "name": "",
          "type": "uint256"
        }
      ],
      "stateMutability": "nonpayable",
      "type": "function"
    },
    {
      "inputs": [
        {
          "internalType": "uint256",
          "name": "_claimId",
          "type": "uint256"
        },
        {
          "internalType": "enum HealthInsurance.ClaimStatus",
          "name": "_status",
          "type": "uint8"
        }
      ],
      "name": "updateClaimStatus",
      "outputs": [],
      "stateMutability": "nonpayable",
      "type": "function"
    },
    {
      "inputs": [
        {
          "internalType": "address",
          "name": "_user",
          "type": "address"
        }
      ],
      "name": "getPoliciesForUser",
      "outputs": [
        {
          "internalType": "uint256[]",
          "name": "",
          "type": "uint256[]"
        }
      ],
      "stateMutability": "view",
      "type": "function"
    },
    {
      "inputs": [],
      "name": "getContractBalance",
      "outputs": [
        {
          "internalType": "uint256",
          "name": "",
          "type": "uint256"
        }
      ],
      "stateMutability": "view",
      "type": "function"
    },
    {
      "inputs": [],
      "name": "fundContract",
      "outputs": [],
      "stateMutability": "payable",
      "type": "function"
    }
  ],
  "bytecode": "0x608060405260016003556001600455348015610019575f80fd5b503360055f6101000a81548173ffffffffffffffffffffffffffffffffffffffff021916908373ffffffffffffffffffffffffffffffffffffffff160217905550611c71806100675f395ff3fe6080604052600436106100c1575f3560e01c8063ab1f5b7c1161007e578063cad0b8db11610058578063cad0b8db14610248578063d3e8948314610272578063ec1b350e146102b2578063f9083819146102ee576100c1565b8063ab1f5b7c146101da578063bd097e2114610202578063c4e3b0381461020c576100c1565b80633d36adc5146100c55780634364b26e146101015780636f9fb98a1461011d5780638da5cb5b14610147578063a0021cf114610171578063a888c2cd1461019b575b5f80fd5b3480156100d0575f80fd5b506100eb60048036038101906100e69190610f81565b61032a565b6040516100f89190610fce565b60405180910390f35b61011b60048036038101906101169190610fe7565b610355565b005b348015610128575f80fd5b50610131610451565b60405161013e9190610fce565b60405180910390f35b348015610152575f80fd5b5061015b6104e7565b6040516101689190611021565b60405180910390f35b34801561017c575f80fd5b5061018561050c565b6040516101929190610fce565b60405180910390f35b3480156101a6575f80fd5b506101c160048036038101906101bc9190610fe7565b610512565b6040516101d19493929190611137565b60405180910390f35b3480156101e5575f80fd5b5061020060048036038101906101fb91906111a4565b6105d0565b005b61020a610755565b005b348015610217575f80fd5b50610232600480360381019061022d91906111e2565b6107e6565b60405161023f91906112c4565b60405180910390f35b348015610253575f80fd5b5061025c610879565b6040516102699190610fce565b60405180910390f35b34801561027d575f80fd5b5061029860048036038101906102939190610fe7565b61087f565b6040516102a99594939291906112fe565b60405180910390f35b3480156102bd575f80fd5b506102d860048036038101906102d391906113b0565b6108db565b6040516102e59190610fce565b60405180910390f35b3480156102f9575f80fd5b50610314600480360381019061030f9190611421565b610ba3565b6040516103219190610fce565b60405180910390f35b6002602052815f5260405f208181548110610343575f80fd5b905f5260205f20015f91509150505481565b5f805f8381526020019081526020015f209050806004015f9054906101000a900460ff166103b8576040517f08c379a00000000000000000000000000000000000000000000000000000000081526004016103af906114cf565b60405180910390fd5b806001015434146103fe576040517f08c379a00000000000000000000000000000000000000000000000000000000081526004016103f590611537565b60405180910390fd5b62278d004261040d9190611582565b8160030181905550817f7d285524823001f1a9e0eec4efb8c6350708012b991049fd6dd9250f89c8b258346040516104459190610fce565b60405180910390a25050565b5f60055f9054906101000a900473ffffffffffffffffffffffffffffffffffffffff1673ffffffffffffffffffffffffffffffffffffffff163373ffffffffffffffffffffffffffffffffffffffff16146104e1576040517f08c379a00000000000000000000000000000000000000000000000000000000081526004016104d890611625565b60405180910390fd5b47905090565b60055f9054906101000a900473ffffffffffffffffffffffffffffffffffffffff1681565b60045481565b6001602052805f5260405f205f91509050805f01549080600101805461053790611670565b80601f016020809104026020016040519081016040528092919081815260200182805461056390611670565b80156105ae5780601f10610585576101008083540402835291602001916105ae565b820191905f5260205f20905b81548152906001019060200180831161059157829003601f168201915b505050505090806002015490806003015f9054906101000a900460ff16905084565b60055f9054906101000a900473ffffffffffffffffffffffffffffffffffffffff1673ffffffffffffffffffffffffffffffffffffffff163373ffffffffffffffffffffffffffffffffffffffff161461065f576040517f08c379a000000000000000000000000000000000000000000000000000000000815260040161065690611625565b60405180910390fd5b5f60015f8481526020019081526020015f2090505f815f0154116106b8576040517f08c379a00000000000000000000000000000000000000000000000000000000081526004016106af906116ea565b60405180910390fd5b81816003015f6101000a81548160ff021916908360048111156106de576106dd6110c4565b5b02179055506004808111156106f6576106f56110c4565b5b826004811115610709576107086110c4565b5b036107185761071783610dea565b5b827f37dd038eef9398a895f8a99118d04d1fd1864770c92d81956cce6b9da7decdeb836040516107489190611708565b60405180910390a2505050565b60055f9054906101000a900473ffffffffffffffffffffffffffffffffffffffff1673ffffffffffffffffffffffffffffffffffffffff163373ffffffffffffffffffffffffffffffffffffffff16146107e4576040517f08c379a00000000000000000000000000000000000000000000000000000000081526004016107db90611625565b60405180910390fd5b565b606060025f8373ffffffffffffffffffffffffffffffffffffffff1673ffffffffffffffffffffffffffffffffffffffff1681526020019081526020015f2080548060200260200160405190810160405280929190818152602001828054801561086d57602002820191905f5260205f20905b815481526020019060010190808311610859575b50505050509050919050565b60035481565b5f602052805f5260405f205f91509050805f015f9054906101000a900473ffffffffffffffffffffffffffffffffffffffff1690806001015490806002015490806003015490806004015f9054906101000a900460ff16905085565b5f845f808281526020019081526020015f205f015f9054906101000a900473ffffffffffffffffffffffffffffffffffffffff1673ffffffffffffffffffffffffffffffffffffffff163373ffffffffffffffffffffffffffffffffffffffff161461097c576040517f08c379a000000000000000000000000000000000000000000000000000000000815260040161097390611791565b60405180910390fd5b5f805f8881526020019081526020015f209050806004015f9054906101000a900460ff166109df576040517f08c379a00000000000000000000000000000000000000000000000000000000081526004016109d6906114cf565b60405180910390fd5b8060030154421115610a26576040517f08c379a0000000000000000000000000000000000000000000000000000000008152600401610a1d906117f9565b60405180910390fd5b8060020154841115610a6d576040517f08c379a0000000000000000000000000000000000000000000000000000000008152600401610a6490611861565b60405180910390fd5b5f60045f815480929190610a809061187f565b919050559050604051806080016040528089815260200188888080601f0160208091040260200160405190810160405280939291908181526020018383808284375f81840152601f19601f8201169050808301925050505050505081526020018681526020015f6004811115610af957610af86110c4565b5b81525060015f8381526020019081526020015f205f820151815f01556020820151816001019081610b2a9190611a90565b50604082015181600201556060820151816003015f6101000a81548160ff02191690836004811115610b5f57610b5e6110c4565b5b021790555090505087817f675e9cd1ef5a9bb6971c9f1099eced3c6607be0407bc871bc50a8a7b36832e7460405160405180910390a3809350505050949350505050565b5f60055f9054906101000a900473ffffffffffffffffffffffffffffffffffffffff1673ffffffffffffffffffffffffffffffffffffffff163373ffffffffffffffffffffffffffffffffffffffff1614610c33576040517f08c379a0000000000000000000000000000000000000000000000000000000008152600401610c2a90611625565b60405180910390fd5b5f60035f815480929190610c469061187f565b9190505590506040518060a001604052808773ffffffffffffffffffffffffffffffffffffffff1681526020018681526020018581526020016201518085610c8e9190611b5f565b42610c999190611582565b8152602001600115158152505f808381526020019081526020015f205f820151815f015f6101000a81548173ffffffffffffffffffffffffffffffffffffffff021916908373ffffffffffffffffffffffffffffffffffffffff1602179055506020820151816001015560408201518160020155606082015181600301556080820151816004015f6101000a81548160ff02191690831515021790555090505060025f8773ffffffffffffffffffffffffffffffffffffffff1673ffffffffffffffffffffffffffffffffffffffff1681526020019081526020015f2081908060018154018082558091505060019003905f5260205f20015f90919091909150558573ffffffffffffffffffffffffffffffffffffffff16817f692975d6d42aec50e0f6ff672acde3bf011e71355ed86dd49de0a1f533950cba60405160405180910390a380915050949350505050565b5f60015f8381526020019081526020015f2090505f805f835f015481526020019081526020015f209050816002015481600201541015610e5f576040517f08c379a0000000000000000000000000000000000000000000000000000000008152600401610e5690611bea565b60405180910390fd5b8160020154816002015f828254610e769190611c08565b92505081905550805f015f9054906101000a900473ffffffffffffffffffffffffffffffffffffffff1673ffffffffffffffffffffffffffffffffffffffff166108fc836002015490811502906040515f60405180830381858888f19350505050158015610ee6573d5f803e3d5ffd5b50505050565b5f80fd5b5f80fd5b5f73ffffffffffffffffffffffffffffffffffffffff82169050919050565b5f610f1d82610ef4565b9050919050565b610f2d81610f13565b8114610f37575f80fd5b50565b5f81359050610f4881610f24565b92915050565b5f819050919050565b610f6081610f4e565b8114610f6a575f80fd5b50565b5f81359050610f7b81610f57565b92915050565b5f8060408385031215610f9757610f96610eec565b5b5f610fa485828601610f3a565b9250506020610fb585828601610f6d565b9150509250929050565b610fc881610f4e565b82525050565b5f602082019050610fe15f830184610fbf565b92915050565b5f60208284031215610ffc57610ffb610eec565b5b5f61100984828501610f6d565b91505092915050565b61101b81610f13565b82525050565b5f6020820190506110345f830184611012565b92915050565b5f81519050919050565b5f82825260208201905092915050565b5f5b83811015611071578082015181840152602081019050611056565b5f8484015250505050565b5f601f19601f8301169050919050565b5f6110968261103a565b6110a08185611044565b93506110b0818560208601611054565b6110b98161107c565b840191505092915050565b7f4e487b71000000000000000000000000000000000000000000000000000000005f52602160045260245ffd5b60058110611102576111016110c4565b5b50565b5f819050611112826110f1565b919050565b5f61112182611105565b9050919050565b61113181611117565b82525050565b5f60808201905061114a5f830187610fbf565b818103602083015261115c818661108c565b905061116b6040830185610fbf565b6111786060830184611128565b95945050505050565b6005811061118d575f80fd5b50565b5f8135905061119e81611181565b92915050565b5f80604083850312156111ba576111b9610eec565b5b5f6111c785828601610f6d565b92505060206111d885828601611190565b9150509250929050565b5f602082840312156111f7576111f6610eec565b5b5f61120484828501610f3a565b91505092915050565b5f81519050919050565b5f82825260208201905092915050565b5f819050602082019050919050565b61123f81610f4e565b82525050565b5f6112508383611236565b60208301905092915050565b5f602082019050919050565b5f6112728261120d565b61127c8185611217565b935061128783611227565b805f5b838110156112b757815161129e8882611245565b97506112a98361125c565b92505060018101905061128a565b5085935050505092915050565b5f6020820190508181035f8301526112dc8184611268565b905092915050565b5f8115159050919050565b6112f8816112e4565b82525050565b5f60a0820190506113115f830188611012565b61131e6020830187610fbf565b61132b6040830186610fbf565b6113386060830185610fbf565b61134560808301846112ef565b9695505050505050565b5f80fd5b5f80fd5b5f80fd5b5f8083601f8401126113705761136f61134f565b5b8235905067ffffffffffffffff81111561138d5761138c611353565b5b6020830191508360018202830111156113a9576113a8611357565b5b9250929050565b5f805f80606085870312156113c8576113c7610eec565b5b5f6113d587828801610f6d565b945050602085013567ffffffffffffffff8111156113f6576113f5610ef0565b5b6114028782880161135b565b9350935050604061141587828801610f6d565b91505092959194509250565b5f805f806080858703121561143957611438610eec565b5b5f61144687828801610f3a565b945050602061145787828801610f6d565b935050604061146887828801610f6d565b925050606061147987828801610f6d565b91505092959194509250565b7f506f6c696379206973206e6f74206163746976650000000000000000000000005f82015250565b5f6114b9601483611044565b91506114c482611485565b602082019050919050565b5f6020820190508181035f8301526114e6816114ad565b9050919050565b7f496e76616c6964207072656d69756d20616d6f756e74000000000000000000005f82015250565b5f611521601683611044565b915061152c826114ed565b602082019050919050565b5f6020820190508181035f83015261154e81611515565b9050919050565b7f4e487b71000000000000000000000000000000000000000000000000000000005f52601160045260245ffd5b5f61158c82610f4e565b915061159783610f4e565b92508282019050808211156115af576115ae611555565b5b92915050565b7f4f6e6c7920746865206f776e65722063616e2063616c6c20746869732066756e5f8201527f6374696f6e000000000000000000000000000000000000000000000000000000602082015250565b5f61160f602583611044565b915061161a826115b5565b604082019050919050565b5f6020820190508181035f83015261163c81611603565b9050919050565b7f4e487b71000000000000000000000000000000000000000000000000000000005f52602260045260245ffd5b5f600282049050600182168061168757607f821691505b60208210810361169a57611699611643565b5b50919050565b7f436c61696d20646f6573206e6f742065786973740000000000000000000000005f82015250565b5f6116d4601483611044565b91506116df826116a0565b602082019050919050565b5f6020820190508181035f830152611701816116c8565b9050919050565b5f60208201905061171b5f830184611128565b92915050565b7f4f6e6c792074686520706f6c69637920686f6c6465722063616e2063616c6c205f8201527f746869732066756e6374696f6e00000000000000000000000000000000000000602082015250565b5f61177b602d83611044565b915061178682611721565b604082019050919050565b5f6020820190508181035f8301526117a88161176f565b9050919050565b7f506f6c69637920686173206578706972656400000000000000000000000000005f82015250565b5f6117e3601283611044565b91506117ee826117af565b602082019050919050565b5f6020820190508181035f830152611810816117d7565b9050919050565b7f436c61696d20616d6f756e74206578636565647320636f7665726167650000005f82015250565b5f61184b601d83611044565b915061185682611817565b602082019050919050565b5f6020820190508181035f8301526118788161183f565b9050919050565b5f61188982610f4e565b91507fffffffffffffffffffffffffffffffffffffffffffffffffffffffffffffffff82036118bb576118ba611555565b5b600182019050919050565b7f4e487b71000000000000000000000000000000000000000000000000000000005f52604160045260245ffd5b5f819050815f5260205f209050919050565b5f6020601f8301049050919050565b5f82821b905092915050565b5f6008830261194f7fffffffffffffffffffffffffffffffffffffffffffffffffffffffffffffffff82611914565b6119598683611914565b95508019841693508086168417925050509392505050565b5f819050919050565b5f61199461198f61198a84610f4e565b611971565b610f4e565b9050919050565b5f819050919050565b6119ad8361197a565b6119c16119b98261199b565b848454611920565b825550505050565b5f90565b6119d56119c9565b6119e08184846119a4565b505050565b5b81811015611a03576119f85f826119cd565b6001810190506119e6565b5050565b601f821115611a4857611a19816118f3565b611a2284611905565b81016020851015611a31578190505b611a45611a3d85611905565b8301826119e5565b50505b505050565b5f82821c905092915050565b5f611a685f1984600802611a4d565b1980831691505092915050565b5f611a808383611a59565b9150826002028217905092915050565b611a998261103a565b67ffffffffffffffff811115611ab257611ab16118c6565b5b611abc8254611670565b611ac7828285611a07565b5f60209050601f831160018114611af8575f8415611ae6578287015190505b611af08582611a75565b865550611b57565b601f198416611b06866118f3565b5f5b82811015611b2d57848901518255600182019150602085019450602081019050611b08565b86831015611b4a5784890151611b46601f891682611a59565b8355505b6001600288020188555050505b505050505050565b5f611b6982610f4e565b9150611b7483610f4e565b9250828202611b8281610f4e565b91508282048414831517611b9957611b98611555565b5b5092915050565b7f496e73756666696369656e7420636f76657261676500000000000000000000005f82015250565b5f611bd4601583611044565b9150611bdf82611ba0565b602082019050919050565b5f6020820190508181035f830152611c0181611bc8565b9050919050565b5f611c1282610f4e565b9150611c1d83610f4e565b9250828203905081811115611c3557611c34611555565b5b9291505056fea2646970667358221220b34bed17ea81fe311868139c3151d4b9e07ac1ad03fd55e68b622ad7e43a92d564736f6c63430008140033",
  "immutableReferences": {},
  "source": "// SPDX-License-Identifier: MIT\r\npragma solidity ^0.8.0;\r\n\r\ncontract HealthInsurance {\r\n    struct Policy {\r\n        address holder;\r\n        uint256 premium;\r\n        uint256 coverageAmount;\r\n        uint256 expiryDate;\r\n        bool isActive;\r\n    }\r\n    \r\n    struct Claim {\r\n        uint256 policyId;\r\n        string treatmentDescription;\r\n        uint256 amount;\r\n        ClaimStatus status;\r\n    }\r\n    \r\n    enum ClaimStatus { Submitted, UnderReview, Approved, Rejected, Paid }\r\n    \r\n    mapping(uint256 => Policy) public policies;\r\n    mapping(uint256 => Claim) public claims;\r\n    mapping(address => uint256[]) public userPolicies;\r\n    \r\n    uint256 public nextPolicyId = 1;\r\n    uint256 public nextClaimId = 1;\r\n    address public owner;\r\n    \r\n    event PolicyCreated(uint256 indexed policyId, address indexed holder);\r\n    event PremiumPaid(uint256 indexed policyId, uint256 amount);\r\n    event ClaimSubmitted(uint256 indexed claimId, uint256 indexed policyId);\r\n    event ClaimStatusChanged(uint256 indexed claimId, ClaimStatus status);\r\n    \r\n    constructor() {\r\n        owner = msg.sender;\r\n    }\r\n    \r\n    modifier onlyOwner() {\r\n        require(msg.sender == owner, \"Only the owner can call this function\");\r\n        _;\r\n    }\r\n    \r\n    modifier onlyPolicyHolder(uint256 _policyId) {\r\n        require(msg.sender == policies[_policyId].holder, \"Only the policy holder can call this function\");\r\n        _;\r\n    }\r\n    \r\n    function createPolicy(address _holder, uint256 _premium, uint256 _coverageAmount, uint256 _durationDays) \r\n        external onlyOwner returns (uint256) {\r\n        uint256 policyId = nextPolicyId++;\r\n        \r\n        policies[policyId] = Policy({\r\n            holder: _holder,\r\n            premium: _premium,\r\n            coverageAmount: _coverageAmount,\r\n            expiryDate: block.timestamp + (_durationDays * 1 days),\r\n            isActive: true\r\n        });\r\n        \r\n        userPolicies[_holder].push(policyId);\r\n        emit PolicyCreated(policyId, _holder);\r\n        return policyId;\r\n    }\r\n    \r\n    function payPremium(uint256 _policyId) external payable {\r\n        Policy storage policy = policies[_policyId];\r\n        require(policy.isActive, \"Policy is not active\");\r\n        require(msg.value == policy.premium, \"Invalid premium amount\");\r\n        \r\n        policy.expiryDate = block.timestamp + 30 days;\r\n        \r\n        emit PremiumPaid(_policyId, msg.value);\r\n    }\r\n    \r\n    function submitClaim(uint256 _policyId, string calldata _description, uint256 _amount) \r\n        external onlyPolicyHolder(_policyId) returns (uint256) {\r\n        Policy storage policy = policies[_policyId];\r\n        require(policy.isActive, \"Policy is not active\");\r\n        require(block.timestamp <= policy.expiryDate, \"Policy has expired\");\r\n        require(_amount <= policy.coverageAmount, \"Claim amount exceeds coverage\");\r\n        \r\n        uint256 claimId = nextClaimId++;\r\n        \r\n        claims[claimId] = Claim({\r\n            policyId: _policyId,\r\n            treatmentDescription: _description,\r\n            amount: _amount,\r\n            status: ClaimStatus.Submitted\r\n        });\r\n        \r\n        emit ClaimSubmitted(claimId, _policyId);\r\n        return claimId;\r\n    }\r\n    \r\n    function updateClaimStatus(uint256 _claimId, ClaimStatus _status) external onlyOwner {\r\n        Claim storage claim = claims[_claimId];\r\n        require(claim.policyId > 0, \"Claim does not exist\");\r\n        \r\n        claim.status = _status;\r\n        \r\n        if (_status == ClaimStatus.Paid) {\r\n            processClaim(_claimId);\r\n        }\r\n        \r\n        emit ClaimStatusChanged(_claimId, _status);\r\n    }\r\n    \r\n    function processClaim(uint256 _claimId) internal {\r\n        Claim storage claim = claims[_claimId];\r\n        Policy storage policy = policies[claim.policyId];\r\n        \r\n        require(policy.coverageAmount >= claim.amount, \"Insufficient coverage\");\r\n        \r\n        policy.coverageAmount -= claim.amount;\r\n        \r\n        payable(policy.holder).transfer(claim.amount);\r\n    }\r\n    \r\n    function getPoliciesForUser(address _user) external view returns (uint256[] memory) {\r\n        return userPolicies[_user];\r\n    }\r\n    \r\n    function getContractBalance() external view onlyOwner returns (uint256) {\r\n        return address(this).balance;\r\n    }\r\n    \r\n    function fundContract() external payable onlyOwner {}\r\n}\r\n",
  "sourcePath": "C:\\Users\\User\\Downloads\\healthcare\\health-insurance-blockchain\\contracts\\HealthInsurance.sol",
  "compiler": {
    "name": "solc",
    "version": "0.8.20+commit.a1b79de6.Emscripten.clang"
  },
  "schemaVersion": "3.4.16",
  "updatedAt": "2025-02-22T12:40:40.175Z",
  "devdoc": {
    "kind": "dev",
    "methods": {},
    "version": 1
  },
  "userdoc": {
    "kind": "user",
    "methods": {},
    "version": 1
  }
}